:040000003AEF00F0E3
:100008000A820E0133AB0BEF00F00DEF00F038EF72
:1000180000F080A612EF00F016EF00F0016A012A46
:1000280017EF00F0016A01460146014680500118A9
:10003800F70B0118806E7CAE24EF00F028EF00F07B
:10004800016A012A29EF00F0016A013201327C506D
:1000580001187F0B01187C6E000ED46E810ED36ED2
:10006800084A092A0E01339B0A92110003EF01F096
:1000780002A041EF00F043EF00F046EF00F07F8070
:1000880047EF00F07F9002A24CEF00F04EEF00F037
:1000980051EF00F07F8252EF00F07F9202A457EFF9
:1000A80000F059EF00F05CEF00F079845DEF00F0AC
:1000B800799402A662EF00F064EF00F067EF00F0B9
:1000C8007E8C68EF00F07E9C02A86DEF00F06FEF69
:1000D80000F072EF00F0798873EF00F0799802AAC7
:1000E80078EF00F07AEF00F07DEF00F0798A7EEF8C
:1000F80000F0799A02AC83EF00F085EF00F088EF0A
:1001080000F07E8089EF00F07E9002AE8EEF00F066
:1001180090EF00F093EF00F07A8094EF00F07A907F
:1001280003A099EF00F09BEF00F09EEF00F07A82B9
:100138009FEF00F07A92050E056E0F0E046EF10E19
:10014800E82EFED7042EFCD7052EFAD700F01200B1
:10015800C4EC00F080967C8E8896849E0CEC01F0AE
:10016800F9EC00F0D7EC00F0E9EC00F008C002F080
:1001780009C003F03CEC00F0BAEF00F03AEF00F0F1
:10018800879087928194869C8198819A86908290A4
:1001980082927F907F9279947E9C7998799A7E90CA
:1001A8007A907A921200868E0E01D251F80B0309CA
:1001B800D26FD351F80B0509D36FD083D089D1837F
:1001C800F9EC00F00E01D08F1200D6501F0B400939
:1001D800D66ED688D650F00B0809D66ED588000E94
:1001E800D46E000ED36ED58E1200F30E0E01C61714
:1001F800C691C751E00B1409C76FC68F1200096A70
:10020800086A076A066A0A900A920001ACEF00F0D1
:0C0218000E01298B2B81F28CF28E12005B
:020000040020DA
:10000000FF0FFF0FFF0FFF0FFF0FFF0FFF0FFF0F80
:020000040030CA
:0C000000AAFFFFFF9FFFFFFFFFFFFFFFB5
:00000001FF
