:040000001FEF00F0FE
:100008000C820E0133AB0BEF00F00DEF00F014EF94
:1000180000F0054A062A1B0ED46E1D0ED36E339BC4
:1000280035A119EF00F01BEF00F01DEF00F08086FE
:1000380035910C9211003FEF01F007A026EF00F078
:1000480028EF00F02BEF00F07F802CEF00F07F907E
:1000580007A231EF00F033EF00F036EF00F07F82B7
:1000680037EF00F07F9207A43CEF00F03EEF00F07E
:1000780041EF00F0798442EF00F0799407A647EF4A
:1000880000F049EF00F04CEF00F07E8C4DEF00F0EF
:100098007E9C07A852EF00F054EF00F057EF00F0F5
:1000A800798858EF00F0799807AA5DEF00F05FEFC4
:1000B80000F062EF00F0798A63EF00F0799A07ACFC
:1000C80068EF00F06AEF00F06DEF00F07E806EEFF1
:1000D80000F07E9007AE73EF00F075EF00F078EF58
:1000E80000F07A8079EF00F07A9008A07EEF00F0B7
:1000F80080EF00F083EF00F07A8284EF00F07A92CC
:10010800050E0A6E0F0E096EF10EE82EFED7092EA7
:10011800FCD70A2EFAD700F012000AEC01F08096FC
:10012800889654EC01F04AEC01F01DEC01F02FEC3C
:1001380001F005C007F006C008F0000E0A6E3C0E7C
:10014800096ED8EC00F007500810D8A4AEEF00F004
:10015800B0EF00F0B2EF00F0034A042A180E0318BB
:100168000410D8A4BAEF00F0BCEF00F0C8EF00F01C
:1001780003C007F004C008F021EC00F0000E046E84
:10018800000E036ECEEF00F003C007F004C008F0C5
:1001980021EC00F003C007F004C008F05BEC01F0AC
:1001A8009DEF00F01FEF00F009500A10D8B4DFEF00
:1001B80000F0E1EF00F005EF01F0010E0B6EE9EF42
:1001C80000F0D89009360A360B2A0AAEEEEF00F096
:1001D800F0EF00F0E5EF00F00950075C0A5008580E
:1001E800D8A0F9EF00F0FBEF00F0FFEF00F00950A6
:1001F800075E0A50085AD8900A3209320B2EF0EFDF
:1002080000F007C007F008C008F012008790879236
:100218008194869C8198819A8690829082927F9020
:100228007F9279947E9C7998799A7E907A907A9246
:100238001200868E0E01D251F80B0309D26FD351EA
:10024800F80B0509D36FD083D089D1834AEC01F02C
:100258000E01D08F1200D6501F0B4009D66ED688DB
:10026800D650F00B0E09D66ED5881B0ED46E1D0E17
:10027800D36ED58E1200066A056A046A036A026A9A
:10028800016A0C900C92000191EF00F0F30E0E0140
:10029800C617C691C751E00B1409C76FC68F120065
:1002A8000E01298B2B81F29AF28CF28E1200808635
:0202B800120032
:020000040020DA
:10000000FF0FFF0FFF0FFF0FFF0FFF0FFF0FFF0F80
:020000040030CA
:0C000000AAFFFFFF9FFFFFFFFFFFFFFFB5
:00000001FF
