:040000003EEF00F0DF
:100008001B820E0133AB0BEF00F00DEF00F018EF81
:1000180000F00F4A102A000E0A6E010E096E1B0E20
:10002800D46E1D0ED36E339B35A11DEF00F01FEF6C
:1000380000F03CEF00F0D0BD24EF00F026EF00F018
:100048002AEF00F0809635913CEF00F0D0AD2FEF0D
:1000580000F031EF00F03CEF00F00B500C10D8A48A
:1000680038EF00F03AEF00F03BEF00F08086359172
:100078001B92110098EF01F014A045EF00F047EF34
:1000880000F04AEF00F07F804BEF00F07F9014A261
:1000980050EF00F052EF00F055EF00F07F8256EF7E
:1000A80000F07F9214A45BEF00F05DEF00F060EFCA
:1000B80000F0798461EF00F0799414A666EF00F0FF
:1000C80068EF00F06BEF00F07E8C6CEF00F07E9C28
:1000D80014A871EF00F073EF00F076EF00F0798864
:1000E80077EF00F0799814AA7CEF00F07EEF00F02B
:1000F80081EF00F0798A82EF00F0799A14AC87EFEB
:1001080000F089EF00F08CEF00F07E808DEF00F0BA
:100118007E9014AE92EF00F094EF00F097EF00F0AD
:100128007A8098EF00F07A9015A09DEF00F09FEF8D
:1001380000F0A2EF00F07A82A3EF00F07A92050EA9
:10014800176E0F0E166EF10EE82EFED7162EFCD780
:10015800172EFAD700F01200AFEC01F080968896BF
:100168000BEC02F001EC02F0C2EC01F0E7EC01F05C
:1001780011C014F012C015F0F6EC01F009500A1085
:10018800D8B4C9EF00F0CBEF00F0E4EF00F00FC0F7
:1001980014F010C015F0000E176E3C0E166E1CEC15
:1001A80001F014501510D8A4DCEF00F0DEEF00F0D9
:1001B800E4EF00F0114A122A000E0A6E000E096ED2
:1001C800180E0F181010D8A4ECEF00F0EEEF00F0A6
:1001D800FCEF00F00FC014F010C015F040EC00F078
:1001E8000D4A0E2A000E106E000E0F6E02EF01F07F
:1001F8000FC014F010C015F040EC00F00FC014F060
:1002080010C015F075EC01F014C00BF015C00CF01F
:100218000DC014F00EC015F0D5EC01F019C014F0A3
:100228001AC015F04EEC01F0C2EF00F03EEF00F0FE
:1002380016501710D8B423EF01F025EF01F049EF5D
:1002480001F0010E186E2DEF01F0D8901636173612
:10025800182A17AE32EF01F034EF01F029EF01F060
:100268001650145C17501558D8A03DEF01F03FEF19
:1002780001F043EF01F01650145E1750155AD8904C
:1002880017321632182E34EF01F014C014F015C0CE
:1002980015F01200030E1414166E000E1514176EC6
:1002A80016501710D8A45BEF01F05DEF01F070EF66
:1002B80001F0000E066E010E056E3B0E0D180E10B5
:1002C800D8A469EF01F06BEF01F074EF01F00D06AF
:1002D800D8A00E0674EF01F0000E066E000E056E33
:1002E80012000F501010D8B47CEF01F07EEF01F02F
:1002F8008FEF01F0105007E1050E0F5CD8B087EFC3
:1003080001F089EF01F08FEF01F0000E0C6E010E85
:100318000B6E93EF01F0000E0C6E000E0B6E0BC00F
:1003280014F00CC015F01200240EF66E040EF76ED1
:10033800000EF86E0900F5CF19F00900F5CF1AF094
:1003480000EE01F0130EEE6AE806FDE11B901B9229
:100358000001B0EF00F0879087928194869C819885
:10036800819A8690829082927F907F9279947E9CE7
:100378007998799A7E907A907A921200868E0E01F8
:10038800D251F80B0309D26FD351F80B0509D36F7B
:10039800D083D089D183D18101EC02F00E01D08FB6
:1003A80012006D0E141806E11504D8A4DEEF01F052
:1003B800E0EF01F0E6EF01F0194A1A2A000E0E6E7E
:1003C800000E0D6E1200D6501F0B4009D66ED6884F
:1003D800D650F00B0709D66ED5881B0ED46E1D0EAD
:1003E800D36E120014501510D8A4FDEF01F0FFEFE2
:1003F80001F000EF02F0D58E1200F30E0E01C617C1
:10040800C691C751E00B1409C76FC68F12000E01C1
:0E041800298B2B81F29AF28CF28E12000100D9
:020000040020DA
:10000000FF0FFF0FFF0FFF0FFF0FFF0FFF0FFF0F80
:020000040030CA
:0C000000AAFFFFFF9FFFFFFFFFFFFFFFB5
:00000001FF
