:040000003AEF00F0E3
:100008000E820E0133AB0BEF00F00DEF00F014EF92
:1000180000F0054A062A1B0ED46E1D0ED36E339BC4
:100028000750D8B41AEF00F01CEF00F02EEF00F0E4
:1000380080A621EF00F025EF00F0086A082A26EFD5
:1000480000F0086A08460846084680500818F70B6A
:100058000818806E0E0135A134EF00F036EF00F07D
:1000680038EF00F0808635910E92110058EF01F0BC
:1000780009A041EF00F043EF00F046EF00F07F8069
:1000880047EF00F07F9009A24CEF00F04EEF00F030
:1000980051EF00F07F8252EF00F07F9209A457EFF2
:1000A80000F059EF00F05CEF00F079845DEF00F0AC
:1000B800799409A662EF00F064EF00F067EF00F0B2
:1000C8007E8C68EF00F07E9C09A86DEF00F06FEF62
:1000D80000F072EF00F0798873EF00F0799809AAC0
:1000E80078EF00F07AEF00F07DEF00F0798A7EEF8C
:1000F80000F0799A09AC83EF00F085EF00F088EF03
:1001080000F07E8089EF00F07E9009AE8EEF00F05F
:1001180090EF00F093EF00F07A8094EF00F07A907F
:100128000AA099EF00F09BEF00F09EEF00F07A82B2
:100138009FEF00F07A92050E0C6E0F0E0B6EF10E0B
:10014800E82EFED70B2EFCD70C2EFAD700F01200A3
:1001580023EC01F080967C8E8896849E6DEC01F0ED
:1001680063EC01F036EC01F048EC01F005C009F051
:1001780006C00AF0000E0C6E3C0E0B6EF1EC00F09F
:1001880009500A10D8A4CBEF00F0CDEF00F0CFEF64
:1001980000F0034A042A180E03180410D8A4D7EF55
:1001A80000F0D9EF00F0E5EF00F003C009F004C05B
:1001B8000AF03CEC00F0000E046E000E036EEBEF4C
:1001C80000F003C009F004C00AF03CEC00F0010E96
:1001D800076EBAEF00F03AEF00F00B500C10D8B4ED
:1001E800F8EF00F0FAEF00F01EEF01F0010E0D6ECF
:1001F80002EF01F0D8900B360C360D2A0CAE07EF43
:1002080001F009EF01F0FEEF00F00B50095C0C5013
:100218000A58D8A012EF01F014EF01F018EF01F01E
:100228000B50095E0C500A5AD8900C320B320D2E26
:1002380009EF01F009C009F00AC00AF0120087901E
:1002480087928194869C8198819A869082908292E6
:100258007F907F9279947E9C7998799A7E907A9013
:100268007A921200868E0E01D251F80B0309D26FD2
:10027800D351F80B0509D36FD083D089D18363ECB0
:1002880001F00E01D08F1200D6501F0B4009D66E18
:10029800D688D650F00B0E09D66ED5881B0ED46EB4
:1002A8001D0ED36ED58E120000EE01F0070EEE6A19
:1002B800E806FDE10E900E920001ACEF00F0F30E9F
:1002C8000E01C617C691C751E00B1409C76FC68F38
:1002D80012000E01298B2B81F29AF28CF28E1200F9
:020000040020DA
:10000000FF0FFF0FFF0FFF0FFF0FFF0FFF0FFF0F80
:020000040030CA
:0C000000AAFFFFFF9FFFFFFFFFFFFFFFB5
:00000001FF
