:040000003EEF00F0DF
:100008001D820E0133AB0BEF00F00DEF00F018EF7F
:1000180000F0114A122A000E0C6E010E0B6E1B0E18
:10002800D46E1D0ED36E339B35A11DEF00F01FEF6C
:1000380000F03CEF00F0D0BD24EF00F026EF00F018
:100048002AEF00F0809635913CEF00F0D0AD2FEF0D
:1000580000F031EF00F03CEF00F00D500E10D8A486
:1000680038EF00F03AEF00F03BEF00F08086359172
:100078001D92110098EF01F016A045EF00F047EF30
:1000880000F04AEF00F07F804BEF00F07F9016A25F
:1000980050EF00F052EF00F055EF00F07F8256EF7E
:1000A80000F07F9216A45BEF00F05DEF00F060EFC8
:1000B80000F0798461EF00F0799416A666EF00F0FD
:1000C80068EF00F06BEF00F07E8C6CEF00F07E9C28
:1000D80016A871EF00F073EF00F076EF00F0798862
:1000E80077EF00F0799816AA7CEF00F07EEF00F029
:1000F80081EF00F0798A82EF00F0799A16AC87EFE9
:1001080000F089EF00F08CEF00F07E808DEF00F0BA
:100118007E9016AE92EF00F094EF00F097EF00F0AB
:100128007A8098EF00F07A9017A09DEF00F09FEF8B
:1001380000F0A2EF00F07A82A3EF00F07A92050EA9
:10014800196E0F0E186EF10EE82EFED7182EFCD77A
:10015800192EFAD700F01200AFEC01F080968896BD
:100168000BEC02F001EC02F0C2EC01F0E7EC01F05C
:1001780013C016F014C017F0F6EC01F00B500C1079
:10018800D8B4C9EF00F0CBEF00F0E4EF00F011C0F5
:1001980016F012C017F0000E196E3C0E186E1CEC0B
:1001A80001F016501710D8A4DCEF00F0DEEF00F0D5
:1001B800E4EF00F0134A142A000E0C6E000E0B6ECA
:1001C800180E11181210D8A4ECEF00F0EEEF00F0A2
:1001D800FCEF00F011C016F012C017F040EC00F070
:1001E8000F4A102A000E126E000E116E02EF01F077
:1001F80011C016F012C017F040EC00F011C016F054
:1002080012C017F075EC01F016C00DF017C00EF013
:100218000FC016F010C017F0D5EC01F01BC016F097
:100228001CC017F04EEC01F0C2EF00F03EEF00F0FA
:1002380018501910D8B423EF01F025EF01F049EF59
:1002480001F0010E1A6E2DEF01F0D890183619360C
:100258001A2A19AE32EF01F034EF01F029EF01F05C
:100268001850165C19501758D8A03DEF01F03FEF11
:1002780001F043EF01F01850165E1950175AD89044
:10028800193218321A2E34EF01F016C016F017C0C2
:1002980017F01200030E1614186E000E1714196EBC
:1002A80018501910D8A45BEF01F05DEF01F070EF62
:1002B80001F0000E066E010E056E3B0E0F181010B1
:1002C800D8A469EF01F06BEF01F074EF01F00F06AD
:1002D800D8A0100674EF01F0000E066E000E056E31
:1002E800120011501210D8B47CEF01F07EEF01F02B
:1002F8008FEF01F0125007E1050E115CD8B087EFBF
:1003080001F089EF01F08FEF01F0000E0E6E010E83
:100318000D6E93EF01F0000E0E6E000E0D6E0DC007
:1003280016F00EC017F01200240EF66E040EF76ECB
:10033800000EF86E0900F5CF1BF00900F5CF1CF090
:1003480000EE01F0150EEE6AE806FDE11D901D9223
:100358000001B0EF00F0879087928194869C819885
:10036800819A8690829082927F907F9279947E9CE7
:100378007998799A7E907A907A921200868E0E01F8
:10038800D251F80B0309D26FD351F80B0509D36F7B
:10039800D083D089D183D18101EC02F00E01D08FB6
:1003A80012006D0E161806E11704D8A4DEEF01F04E
:1003B800E0EF01F0E6EF01F01B4A1C2A000E106E78
:1003C800000E0F6E1200D6501F0B4009D66ED6884D
:1003D800D650F00B0709D66ED5881B0ED46E1D0EAD
:1003E800D36E120016501710D8A4FDEF01F0FFEFDE
:1003F80001F000EF02F0D58E1200F30E0E01C617C1
:10040800C691C751E00B1409C76FC68F12000E01C1
:0E041800298B2B81F29AF28CF28E12000100D9
:020000040020DA
:10000000FF0FFF0FFF0FFF0FFF0FFF0FFF0FFF0F80
:020000040030CA
:0C000000AAFFFFFF9FFFFFFFFFFFFFFFB5
:00000001FF
